:03000000020006F5
:03005F0002000399
:0300030002006296
:10006200750802750900750A03750B00750C057594
:100072000D00750E09750F007510C075110075120F
:10008200F97513007514A47515007516B07517006F
:10009200751899751900751A92751B00751C827571
:1000A2001D00751EF8751F007520807521007522D0
:1000B20090752300D287E4F52AF52BE4F526F5277F
:1000C200752401F5257E017F00AC26AD27E5244588
:1000D2002524FF92B4EE4F24FF92B38C02EDCA2581
:1000E200E0CA33EA2408F9870209870319EBCA2513
:1000F200E0CA33EA2410F98702098703198A900CAF
:10010200BC00010D75280A752900E52824FFFAE5CF
:100112002934FFFB8A288B29EA4B70EE7590FF1E6B
:10012200BEFF011FEF30E7A58C268D27152474FF33
:10013200B524021525E52530E78B052AE4B52A0208
:10014200052BC3E52A943CE52B648094805003027E
:1001520000BDAE0EAF0F0EBE00010F8E0E8F0FC38D
:10016200EE940AEF94004012E4F50EF50FAE0CAFD8
:100172000D0EBE00010F8E0C8F0DC3E50C9406E52B
:100182000D94004012E4F50CF50DAE0AAF0B0EBE55
:1001920000010F8E0A8F0BC3E50A940AE50B940047
:1001A2004012E4F50AF50BAE08AF090EBE00010FCE
:1001B2008E088F0985082C85092D90000A1201E608
:1001C200AE82AF83E50A2EFEE50B3FFFC3EE941825
:1001D200EF940050030200B8E4F508F509F50AF5BA
:0401E2000B0200B854
:06003500E478FFF6D8FD9F
:100013007900E94400601B7A00900207780175A01B
:1000230000E493F2A308B8000205A0D9F4DAF2754C
:02003300A0FF2C
:1001E600E582852CF0A4C582C0F0852DF0A4D0F060
:0D01F60025F0C583852CF0A42583F5832218
:10003B007800E84400600A790175A000E4F309D860
:10004B00FC7800E84400600C7900900001E4F0A318
:04005B00D8FCD9FAFA
:0D00060075812D120203E5826003020003E4
:0402030075820022DE
:00000001FF
