:03000000020006F5
:03005F0002000399
:0300030002006296
:200062007508C0750900750AF9750B00750CA4750D00750EB0750F00751099751100751242
:20008200927513007514827515007516F8751700751880751900751A90751B00751CBF7591
:2000A2001D00D284D285D286D287C280D281D282D2832084083084FD851C90D284C280D28D
:2000C20081D282D2832085083085FD850890D285C280D281D282D2832086083086FD851CE1
:2000E20090D286D280C281D282D2832084083084FD851A90D284D280C281D282D283208513
:20010200083085FD851890D285D280C281D282D2832086083086FD851690D286D280D281D8
:20012200C282D2832084083084FD851490D284D280D281C282D2832085083085FD85129084
:20014200D285D280D281C282D2832086083086FD851090D286D280D281D282C28320840840
:200162003084FD850E90D284D280D281D282C2832085083085FD850C90D285D280D281D2C7
:1401820082C2833086030200AC3086FD850A90D2860200AC63
:06003500E478FFF6D8FD9F
:200013007900E94400601B7A0090019A780175A000E493F2A308B8000205A0D9F4DAF275F8
:02003300A0FF2C
:20003B007800E84400600A790175A000E4F309D8FC7800E84400600C7900900001E4F0A3C3
:04005B00D8FCD9FAFA
:0D00060075811D120196E582600302000362
:04019600758200224C
:00000001FF
