:03000000020006F5
:03005F0002000399
:0300030002006296
:20006200750CC0750DF9750EA4750FB07510997511927512827513F8751480751590D2A013
:20008200D2A1D28720A0FD30A0FD750B00E50B240CF97E00EE240CF8750A00E50A240CFC41
:2000A200750900C2B4C2B3E509240CFAC000A8028602D0008A9075080074C72508400405B3
:2000C2000880F6C2B4D2B3C000A8048605D0008D9075080074C725084004050880F6D2B48F
:2000E200C2B386078F9075080074C725084004050880F6D2B4D2B387038B9075080074C7C9
:2001020025084004050880F620A14F20A14CC2B4C2B38A9075080074C72508400405088011
:20012200F6C2B4D2B38D9075080074C725084004050880F6D2B4C2B38F9075080074C7250C
:20014200084004050880F6D2B4D2B38B9075080074C7250840B5050880F6050974F62509A5
:2001620040030200A5050A74FA250A400302009D0EBE0A005003020096050B74FA250B4056
:070182000302008F0200865A
:06003500E478FFF6D8FD9F
:200013007900E94400601B7A0090018D780175A000E493F2A308B8000205A0D9F4DAF27505
:02003300A0FF2C
:20003B007800E84400600A790175A000E4F309D8FC7800E84400600C7900900001E4F0A3C3
:04005B00D8FCD9FAFA
:0D000600758115120189E582600302000377
:040189007582002259
:00000001FF
