:03000000020006F5
:03005F0002000399
:0300030002006296
:200062007508C07509F9750AA4750BB0750C99750D92750E82750FF8751080751190D28754
:200082007F00BF02004003020100EF2408F97E00EE2408F87D00ED2408FC7B00C2B4C2B33C
:2000A200EB2408FAC000A8028690D0007A00BAFA0050030A80F8C2B4D2B3C000A80486905D
:2000C200D0007A00BAFA0050030A80F8D2B4C2B386907A00BAFA0050030A80F8D2B4D2B32C
:2000E20087907A00BAFA0050030A80F80BBB0A0040AA0DBD0600409E0EBE0A004092BF0312
:2001020002800302017CEF2408F97E00EE2408F87D00ED2408FC7B00C2B4C2B3EB2408FA2C
:20012200C000A8028690D0007A00BAFA0050030A80F8C2B4D2B3C000A8048690D0007A00A3
:20014200BAFA0050030A80F8D2B4C2B386907A00BAFA0050030A80F8D2B4D2B387907A0064
:20016200BAFA0050030A80F80BBB0A0040AA0DBD0600409E0EBE040040920FBF04005003C5
:060182000200840200826D
:06003500E478FFF6D8FD9F
:200013007900E94400601B7A0090018C780175A000E493F2A308B8000205A0D9F4DAF27506
:02003300A0FF2C
:20003B007800E84400600A790175A000E4F309D8FC7800E84400600C7900900001E4F0A3C3
:04005B00D8FCD9FAFA
:0D000600758111120188E58260030200037C
:04018800758200225A
:00000001FF
