:03000000020006F5
:03005F0002000399
:0300030002006296
:20006200E4F521F522F523F524F525F526F527F5287529C0F52A752BF9F52C752DA4F52E2E
:20008200752FB0F530753199F532753392F534753582F5367537F8F538753980F53A753BE7
:2000A20090F53CF543F544D2A0D2A1D287A2A0E4337D00F4FCEDF4FDE5434544B401009232
:2000C20000E433FA7B005204EB5205EC4D6016E4F521F522F523F524F525F526F527F5289B
:2000E200754301F544A2A1E4337D00F4FCEDF4FD7401B5430814B5440474018001E4FB33D9
:2001020095E0FAEB5204EA5205EC4D6005E4F543F544E4F53FF540753D01F53E7E017F00C8
:20012200AC3FAD40E53D453E24FF92B4EE4F24FF92B38C02EDCA25E0CA33EA2421F987023A
:2001420009870319EBCA25E0CA33EA2429F98702098703198A900CBC00010D75410A75426E
:2001620000E54124FFFAE54234FFFB8A418B42EA4B70EE7590FF1EBEFF011FEF30E7A58C84
:200182003F8D40153D74FFB53D02153EE53E30E78B7401B5430614B5440280030200AFAE1C
:2001A20027AF280EBE00010F8E278F28C3EE940AEF94004012E4F527F528AE25AF260EBE42
:2001C20000010F8E258F26C3E5259406E52694004012E4F525F526AE23AF240EBE00010FB4
:2001E2008E238F24C3E523940AE52494004012E4F523F524AE21AF220EBE00010F8E218F72
:200202002285210885220990000A120232AE82AF83E5232EFEE5243FFFBE6305BF00028038
:10022200030200AFE4F521F522F523F5240200AF25
:06003500E478FFF6D8FD9F
:200013007900E94400601B7A00900253780175A000E493F2A308B8000205A0D9F4DAF2753E
:02003300A0FF2C
:1D023200E5828508F0A4C582C0F08509F0A4D0F025F0C5838508F0A42583F583228E
:20003B007800E84400600A790175A000E4F309D8FC7800E84400600C7900900001E4F0A3C3
:04005B00D8FCD9FAFA
:0D00060075814412024FE582600302000381
:04024F007582002292
:00000001FF
